{
  "contractName": "SupplyChain",
  "abi": [
    {
      "inputs": [],
      "payable": true,
      "stateMutability": "payable",
      "type": "constructor"
    },
    {
      "anonymous": false,
      "inputs": [
        {
          "indexed": false,
          "name": "upc",
          "type": "uint256"
        }
      ],
      "name": "Extracted",
      "type": "event"
    },
    {
      "anonymous": false,
      "inputs": [
        {
          "indexed": false,
          "name": "upc",
          "type": "uint256"
        }
      ],
      "name": "Filtered",
      "type": "event"
    },
    {
      "anonymous": false,
      "inputs": [
        {
          "indexed": false,
          "name": "upc",
          "type": "uint256"
        }
      ],
      "name": "Bottled",
      "type": "event"
    },
    {
      "anonymous": false,
      "inputs": [
        {
          "indexed": false,
          "name": "upc",
          "type": "uint256"
        }
      ],
      "name": "ForSale",
      "type": "event"
    },
    {
      "anonymous": false,
      "inputs": [
        {
          "indexed": false,
          "name": "upc",
          "type": "uint256"
        }
      ],
      "name": "Sold",
      "type": "event"
    },
    {
      "anonymous": false,
      "inputs": [
        {
          "indexed": false,
          "name": "upc",
          "type": "uint256"
        }
      ],
      "name": "Shipped",
      "type": "event"
    },
    {
      "anonymous": false,
      "inputs": [
        {
          "indexed": false,
          "name": "upc",
          "type": "uint256"
        }
      ],
      "name": "Received",
      "type": "event"
    },
    {
      "anonymous": false,
      "inputs": [
        {
          "indexed": false,
          "name": "upc",
          "type": "uint256"
        }
      ],
      "name": "Purchased",
      "type": "event"
    },
    {
      "constant": false,
      "inputs": [],
      "name": "kill",
      "outputs": [],
      "payable": false,
      "stateMutability": "nonpayable",
      "type": "function"
    },
    {
      "constant": false,
      "inputs": [
        {
          "name": "_upc",
          "type": "uint256"
        },
        {
          "name": "_originWaterCompanyID",
          "type": "address"
        },
        {
          "name": "_originWaterCompanyName",
          "type": "string"
        },
        {
          "name": "_originWaterCompanyInformation",
          "type": "string"
        },
        {
          "name": "_originWaterCompanyLatitude",
          "type": "string"
        },
        {
          "name": "_originWaterCompanyLongitude",
          "type": "string"
        },
        {
          "name": "_productNotes",
          "type": "string"
        }
      ],
      "name": "extractWater",
      "outputs": [],
      "payable": false,
      "stateMutability": "nonpayable",
      "type": "function"
    },
    {
      "constant": false,
      "inputs": [
        {
          "name": "_upc",
          "type": "uint256"
        }
      ],
      "name": "filterWater",
      "outputs": [],
      "payable": false,
      "stateMutability": "nonpayable",
      "type": "function"
    },
    {
      "constant": false,
      "inputs": [
        {
          "name": "_upc",
          "type": "uint256"
        }
      ],
      "name": "bottlingWater",
      "outputs": [],
      "payable": false,
      "stateMutability": "nonpayable",
      "type": "function"
    },
    {
      "constant": false,
      "inputs": [
        {
          "name": "_upc",
          "type": "uint256"
        },
        {
          "name": "_price",
          "type": "uint256"
        }
      ],
      "name": "sellItem",
      "outputs": [],
      "payable": false,
      "stateMutability": "nonpayable",
      "type": "function"
    },
    {
      "constant": false,
      "inputs": [
        {
          "name": "_upc",
          "type": "uint256"
        }
      ],
      "name": "buyItem",
      "outputs": [],
      "payable": true,
      "stateMutability": "payable",
      "type": "function"
    },
    {
      "constant": false,
      "inputs": [
        {
          "name": "_upc",
          "type": "uint256"
        }
      ],
      "name": "shipItem",
      "outputs": [],
      "payable": false,
      "stateMutability": "nonpayable",
      "type": "function"
    },
    {
      "constant": false,
      "inputs": [
        {
          "name": "_upc",
          "type": "uint256"
        }
      ],
      "name": "receiveItem",
      "outputs": [],
      "payable": false,
      "stateMutability": "nonpayable",
      "type": "function"
    },
    {
      "constant": false,
      "inputs": [
        {
          "name": "_upc",
          "type": "uint256"
        }
      ],
      "name": "purchaseItem",
      "outputs": [],
      "payable": false,
      "stateMutability": "nonpayable",
      "type": "function"
    },
    {
      "constant": true,
      "inputs": [
        {
          "name": "_upc",
          "type": "uint256"
        }
      ],
      "name": "fetchItemBufferOne",
      "outputs": [
        {
          "name": "itemSKU",
          "type": "uint256"
        },
        {
          "name": "itemUPC",
          "type": "uint256"
        },
        {
          "name": "ownerID",
          "type": "address"
        },
        {
          "name": "originWaterCompanyID",
          "type": "address"
        },
        {
          "name": "originWaterCompanyName",
          "type": "string"
        },
        {
          "name": "originWaterCompanyInformation",
          "type": "string"
        },
        {
          "name": "originWaterCompanyLatitude",
          "type": "string"
        },
        {
          "name": "originWaterCompanyLongitude",
          "type": "string"
        }
      ],
      "payable": false,
      "stateMutability": "view",
      "type": "function"
    },
    {
      "constant": true,
      "inputs": [
        {
          "name": "_upc",
          "type": "uint256"
        }
      ],
      "name": "fetchItemBufferTwo",
      "outputs": [
        {
          "name": "itemSKU",
          "type": "uint256"
        },
        {
          "name": "itemUPC",
          "type": "uint256"
        },
        {
          "name": "productID",
          "type": "uint256"
        },
        {
          "name": "productNotes",
          "type": "string"
        },
        {
          "name": "productPrice",
          "type": "uint256"
        },
        {
          "name": "itemState",
          "type": "uint8"
        },
        {
          "name": "distributorID",
          "type": "address"
        },
        {
          "name": "retailerID",
          "type": "address"
        },
        {
          "name": "consumerID",
          "type": "address"
        }
      ],
      "payable": false,
      "stateMutability": "view",
      "type": "function"
    }
  ],
  "bytecode": "0x6080604052336000806101000a81548173ffffffffffffffffffffffffffffffffffffffff021916908373ffffffffffffffffffffffffffffffffffffffff160217905550600160028190555060018081905550611aa9806100626000396000f3006080604052600436106100af576000357c0100000000000000000000000000000000000000000000000000000000900463ffffffff1680632d923561146100b457806341c0e1b5146100eb57806366225ff91461010257806377c459131461027257806381e7c185146104d0578063a26be999146104fd578063d38ea5bf1461052a578063e48c159014610557578063e7fb74c714610584578063f0a9ba2e146105a4578063f61c899a1461074f575b600080fd5b3480156100c057600080fd5b506100e9600480360381019080803590602001909291908035906020019092919050505061077c565b005b3480156100f757600080fd5b50610100610895565b005b34801561010e57600080fd5b5061012d60048036038101908080359060200190929190505050610926565b604051808a81526020018981526020018881526020018060200187815260200186600781111561015957fe5b60ff1681526020018573ffffffffffffffffffffffffffffffffffffffff1673ffffffffffffffffffffffffffffffffffffffff1681526020018473ffffffffffffffffffffffffffffffffffffffff1673ffffffffffffffffffffffffffffffffffffffff1681526020018373ffffffffffffffffffffffffffffffffffffffff1673ffffffffffffffffffffffffffffffffffffffff168152602001828103825288818151815260200191508051906020019080838360005b8381101561022f578082015181840152602081019050610214565b50505050905090810190601f16801561025c5780820380516001836020036101000a031916815260200191505b509a505050505050505050505060405180910390f35b34801561027e57600080fd5b5061029d60048036038101908080359060200190929190505050610b43565b604051808981526020018881526020018773ffffffffffffffffffffffffffffffffffffffff1673ffffffffffffffffffffffffffffffffffffffff1681526020018673ffffffffffffffffffffffffffffffffffffffff1673ffffffffffffffffffffffffffffffffffffffff16815260200180602001806020018060200180602001858103855289818151815260200191508051906020019080838360005b8381101561035957808201518184015260208101905061033e565b50505050905090810190601f1680156103865780820380516001836020036101000a031916815260200191505b50858103845288818151815260200191508051906020019080838360005b838110156103bf5780820151818401526020810190506103a4565b50505050905090810190601f1680156103ec5780820380516001836020036101000a031916815260200191505b50858103835287818151815260200191508051906020019080838360005b8381101561042557808201518184015260208101905061040a565b50505050905090810190601f1680156104525780820380516001836020036101000a031916815260200191505b50858103825286818151815260200191508051906020019080838360005b8381101561048b578082015181840152602081019050610470565b50505050905090810190601f1680156104b85780820380516001836020036101000a031916815260200191505b509c5050505050505050505050505060405180910390f35b3480156104dc57600080fd5b506104fb60048036038101908080359060200190929190505050610eda565b005b34801561050957600080fd5b5061052860048036038101908080359060200190929190505050610fd6565b005b34801561053657600080fd5b5061055560048036038101908080359060200190929190505050611144565b005b34801561056357600080fd5b50610582600480360381019080803590602001909291905050506112b2565b005b6105a2600480360381019080803590602001909291905050506113ae565b005b3480156105b057600080fd5b5061074d60048036038101908080359060200190929190803573ffffffffffffffffffffffffffffffffffffffff169060200190929190803590602001908201803590602001908080601f0160208091040260200160405190810160405280939291908181526020018383808284378201915050505050509192919290803590602001908201803590602001908080601f0160208091040260200160405190810160405280939291908181526020018383808284378201915050505050509192919290803590602001908201803590602001908080601f0160208091040260200160405190810160405280939291908181526020018383808284378201915050505050509192919290803590602001908201803590602001908080601f0160208091040260200160405190810160405280939291908181526020018383808284378201915050505050509192919290803590602001908201803590602001908080601f016020809104026020016040519081016040528093929190818152602001838380828437820191505050505050919291929050505061168b565b005b34801561075b57600080fd5b5061077a600480360381019080803590602001909291905050506118dc565b005b6002546002600781111561078c57fe5b60036000838152602001908152602001600020600b0160009054906101000a900460ff1660078111156107bb57fe5b1415156107c757600080fd5b338073ffffffffffffffffffffffffffffffffffffffff163373ffffffffffffffffffffffffffffffffffffffff1614151561080257600080fd5b82600360006002548152602001908152602001600020600a018190555060038060006002548152602001908152602001600020600b0160006101000a81548160ff0219169083600781111561085357fe5b02179055507fa96ae0fc3224ebd79eebfe54bd130cc9cb94416cddd1f2386115e00b72532468846040518082815260200191505060405180910390a150505050565b6000809054906101000a900473ffffffffffffffffffffffffffffffffffffffff1673ffffffffffffffffffffffffffffffffffffffff163373ffffffffffffffffffffffffffffffffffffffff161415610924576000809054906101000a900473ffffffffffffffffffffffffffffffffffffffff1673ffffffffffffffffffffffffffffffffffffffff16ff5b565b600080600060606000806000806000600360008b8152602001908152602001600020600001549850600360008b8152602001908152602001600020600101549750600360008b8152602001908152602001600020600801549650600360008b81526020019081526020016000206009018054600181600116156101000203166002900480601f016020809104026020016040519081016040528092919081815260200182805460018160011615610100020316600290048015610a2a5780601f106109ff57610100808354040283529160200191610a2a565b820191906000526020600020905b815481529060010190602001808311610a0d57829003601f168201915b50505050509550600360008b8152602001908152602001600020600a01549450600360008b8152602001908152602001600020600b0160009054906101000a900460ff169350600360008b8152602001908152602001600020600b0160019054906101000a900473ffffffffffffffffffffffffffffffffffffffff169250600360008b8152602001908152602001600020600c0160009054906101000a900473ffffffffffffffffffffffffffffffffffffffff169150600360008b8152602001908152602001600020600d0160009054906101000a900473ffffffffffffffffffffffffffffffffffffffff1690508888888888888888889850985098509850985098509850985098509193959799909294969850565b600080600080606080606080600360008a8152602001908152602001600020600001549750600360008a8152602001908152602001600020600101549650600360008a815260200190815260200160002060020160009054906101000a900473ffffffffffffffffffffffffffffffffffffffff169550600360008a815260200190815260200160002060030160009054906101000a900473ffffffffffffffffffffffffffffffffffffffff169450600360008a81526020019081526020016000206004018054600181600116156101000203166002900480601f016020809104026020016040519081016040528092919081815260200182805460018160011615610100020316600290048015610c9d5780601f10610c7257610100808354040283529160200191610c9d565b820191906000526020600020905b815481529060010190602001808311610c8057829003601f168201915b50505050509350600360008a81526020019081526020016000206005018054600181600116156101000203166002900480601f016020809104026020016040519081016040528092919081815260200182805460018160011615610100020316600290048015610d4e5780601f10610d2357610100808354040283529160200191610d4e565b820191906000526020600020905b815481529060010190602001808311610d3157829003601f168201915b50505050509250600360008a81526020019081526020016000206006018054600181600116156101000203166002900480601f016020809104026020016040519081016040528092919081815260200182805460018160011615610100020316600290048015610dff5780601f10610dd457610100808354040283529160200191610dff565b820191906000526020600020905b815481529060010190602001808311610de257829003601f168201915b50505050509150600360008a81526020019081526020016000206007018054600181600116156101000203166002900480601f016020809104026020016040519081016040528092919081815260200182805460018160011615610100020316600290048015610eb05780601f10610e8557610100808354040283529160200191610eb0565b820191906000526020600020905b815481529060010190602001808311610e9357829003601f168201915b50505050509050878787878787878797509750975097509750975097509750919395975091939597565b60025460016007811115610eea57fe5b60036000838152602001908152602001600020600b0160009054906101000a900460ff166007811115610f1957fe5b141515610f2557600080fd5b338073ffffffffffffffffffffffffffffffffffffffff163373ffffffffffffffffffffffffffffffffffffffff16141515610f6057600080fd5b6002600360006002548152602001908152602001600020600b0160006101000a81548160ff02191690836007811115610f9557fe5b02179055507f8aff1823bf9f30e2f7eacb17de47cc2917592a34188a0b47c0c228c82c38fc54836040518082815260200191505060405180910390a1505050565b60025460056007811115610fe657fe5b60036000838152602001908152602001600020600b0160009054906101000a900460ff16600781111561101557fe5b14151561102157600080fd5b3360036000600254815260200190815260200160002060020160006101000a81548173ffffffffffffffffffffffffffffffffffffffff021916908373ffffffffffffffffffffffffffffffffffffffff16021790555033600360006002548152602001908152602001600020600c0160006101000a81548173ffffffffffffffffffffffffffffffffffffffff021916908373ffffffffffffffffffffffffffffffffffffffff1602179055506006600360006002548152602001908152602001600020600b0160006101000a81548160ff0219169083600781111561110457fe5b02179055507fa8142743f8f70a4c26f3691cf4ed59718381fb2f18070ec52be1f1022d855557826040518082815260200191505060405180910390a15050565b6002546006600781111561115457fe5b60036000838152602001908152602001600020600b0160009054906101000a900460ff16600781111561118357fe5b14151561118f57600080fd5b3360036000600254815260200190815260200160002060020160006101000a81548173ffffffffffffffffffffffffffffffffffffffff021916908373ffffffffffffffffffffffffffffffffffffffff16021790555033600360006002548152602001908152602001600020600d0160006101000a81548173ffffffffffffffffffffffffffffffffffffffff021916908373ffffffffffffffffffffffffffffffffffffffff1602179055506007600360006002548152602001908152602001600020600b0160006101000a81548160ff0219169083600781111561127257fe5b02179055507f653d56639fee6b566a5c804764e9689de38645f0b733df89a36a1b7b42173dd8826040518082815260200191505060405180910390a15050565b80600060078111156112c057fe5b60036000838152602001908152602001600020600b0160009054906101000a900460ff1660078111156112ef57fe5b1415156112fb57600080fd5b338073ffffffffffffffffffffffffffffffffffffffff163373ffffffffffffffffffffffffffffffffffffffff1614151561133657600080fd5b6001600360006002548152602001908152602001600020600b0160006101000a81548160ff0219169083600781111561136b57fe5b02179055507f7a0101ef77884f3f11869724937765e0f5bb856f12543a241f151fa8017a1bd36002546040518082815260200191505060405180910390a1505050565b600080600254600360078111156113c157fe5b60036000838152602001908152602001600020600b0160009054906101000a900460ff1660078111156113f057fe5b1415156113fc57600080fd5b600360006002548152602001908152602001600020600a015480341015151561142457600080fd5b600254600080339650600360006002548152602001908152602001600020600a015495508660036000600254815260200190815260200160002060020160006101000a81548173ffffffffffffffffffffffffffffffffffffffff021916908373ffffffffffffffffffffffffffffffffffffffff16021790555086600360006002548152602001908152602001600020600b0160016101000a81548173ffffffffffffffffffffffffffffffffffffffff021916908373ffffffffffffffffffffffffffffffffffffffff1602179055506004600360006002548152602001908152602001600020600b0160006101000a81548160ff0219169083600781111561152b57fe5b021790555060036000600254815260200190815260200160002060030160009054906101000a900473ffffffffffffffffffffffffffffffffffffffff1673ffffffffffffffffffffffffffffffffffffffff166108fc879081150290604051600060405180830381858888f193505050501580156115ae573d6000803e3d6000fd5b507f92f64ca637d023f354075a4be751b169c1a8a9ccb6d33cdd0cb3520543995727886040518082815260200191505060405180910390a160036000848152602001908152602001600020600a01549150813403905060036000848152602001908152602001600020600d0160009054906101000a900473ffffffffffffffffffffffffffffffffffffffff1673ffffffffffffffffffffffffffffffffffffffff166108fc829081150290604051600060405180830381858888f19350505050158015611680573d6000803e3d6000fd5b505050505050505050565b6002546003600060025481526020019081526020016000206000018190555086600360006002548152602001908152602001600020600101819055508560036000600254815260200190815260200160002060020160006101000a81548173ffffffffffffffffffffffffffffffffffffffff021916908373ffffffffffffffffffffffffffffffffffffffff1602179055508560036000600254815260200190815260200160002060030160006101000a81548173ffffffffffffffffffffffffffffffffffffffff021916908373ffffffffffffffffffffffffffffffffffffffff1602179055508460036000600254815260200190815260200160002060040190805190602001906117a19291906119d8565b508360036000600254815260200190815260200160002060050190805190602001906117ce9291906119d8565b508260036000600254815260200190815260200160002060060190805190602001906117fb9291906119d8565b508160036000600254815260200190815260200160002060070190805190602001906118289291906119d8565b508060036000600254815260200190815260200160002060090190805190602001906118559291906119d8565b506000600360006002548152602001908152602001600020600b0160006101000a81548160ff0219169083600781111561188b57fe5b02179055506001600254016002819055507f34e5a5a007c90dce121f77f919f33a44a7fcb9acc7e4f4525d18b6f47e0e4e24876040518082815260200191505060405180910390a150505050505050565b600254600460078111156118ec57fe5b60036000838152602001908152602001600020600b0160009054906101000a900460ff16600781111561191b57fe5b14151561192757600080fd5b338073ffffffffffffffffffffffffffffffffffffffff163373ffffffffffffffffffffffffffffffffffffffff1614151561196257600080fd5b6005600360006002548152602001908152602001600020600b0160006101000a81548160ff0219169083600781111561199757fe5b02179055507ff00b9a5725b80c54016f42114f6ed7792d22eecb116011c4afac29c57bef6c95836040518082815260200191505060405180910390a1505050565b828054600181600116156101000203166002900490600052602060002090601f016020900481019282601f10611a1957805160ff1916838001178555611a47565b82800160010185558215611a47579182015b82811115611a46578251825591602001919060010190611a2b565b5b509050611a549190611a58565b5090565b611a7a91905b80821115611a76576000816000905550600101611a5e565b5090565b905600a165627a7a723058200b5cab9c2416bd04bbc78d2ee612911e8961b1cb083c3aab075e123d88f22bc50029",
  "source": "pragma solidity ^0.4.24;\n// Define a contract 'Supplychain'\ncontract SupplyChain {\n\n  // Define 'owner'\n  address owner;\n\n  // Define a variable called 'upc' for Universal Product Code (UPC)\n  uint  upc;\n\n  // Define a variable called 'sku' for Stock Keeping Unit (SKU)\n  uint  sku;\n\n  // Define a public mapping 'items' that maps the UPC to an Item.\n  mapping (uint => Item) items;\n\n  // Define a public mapping 'itemsHistory' that maps the UPC to an array of TxHash, \n  // that track its journey through the supply chain -- to be sent from DApp.\n  mapping (uint => string[]) itemsHistory;\n  \n  // Define enum 'State' with the following values:\n  enum State \n  { \n    Extracted,  // 0\n    Filtered,  // 1\n    Bottled,     // 2\n    ForSale,    // 3\n    Sold,       // 4\n    Shipped,    // 5\n    Received,   // 6\n    Purchased   // 7\n    }\n\n  State constant defaultState = State.Extracted;\n\n  // Define a struct 'Item' with the following fields:\n  struct Item {\n    uint    sku;  // Stock Keeping Unit (SKU)\n    uint    upc; // Universal Product Code (UPC), generated by the WaterCompany, goes on the package, can be verified by the Consumer\n    address ownerID;  // Metamask-Ethereum address of the current owner as the product moves through 8 stages\n    address originWaterCompanyID; // Metamask-Ethereum address of the WaterCompany\n    string  originWaterCompanyName; // WaterCompany Name\n    string  originWaterCompanyInformation;  // WaterCompany Information\n    string  originWaterCompanyLatitude; // WaterCompany Latitude\n    string  originWaterCompanyLongitude;  // WaterCompany Longitude\n    uint    productID;  // Product ID potentially a combination of upc + sku\n    string  productNotes; // Product Notes\n    uint    productPrice; // Product Price\n    State   itemState;  // Product State as represented in the enum above\n    address distributorID;  // Metamask-Ethereum address of the Distributor\n    address retailerID; // Metamask-Ethereum address of the Retailer\n    address consumerID; // Metamask-Ethereum address of the Consumer\n  }\n\n  // Define 8 events with the same 8 state values and accept 'upc' as input argument\n  event Extracted(uint upc);\n  event Filtered(uint upc);\n  event Bottled(uint upc);\n  event ForSale(uint upc);\n  event Sold(uint upc);\n  event Shipped(uint upc);\n  event Received(uint upc);\n  event Purchased(uint upc);\n\n  // Define a modifer that checks to see if msg.sender == owner of the contract\n  modifier onlyOwner() {\n    require(msg.sender == owner);\n    _;\n  }\n\n  // Define a modifer that verifies the Caller\n  modifier verifyCaller (address _address) {\n    require(msg.sender == _address); \n    _;\n  }\n\n  // Define a modifier that checks if the paid amount is sufficient to cover the price\n  modifier paidEnough(uint _price) { \n    require(msg.value >= _price); \n    _;\n  }\n  \n  // Define a modifier that checks the price and refunds the remaining balance\n  modifier checkValue(uint _upc) {\n    _;\n    uint _price = items[_upc].productPrice;\n    uint amountToReturn = msg.value - _price;\n    items[_upc].consumerID.transfer(amountToReturn);\n  }\n\n  // Define a modifier that checks if an item.state of a upc is Extracted\n  modifier extracted(uint _upc) {\n    require(items[_upc].itemState == State.Extracted);\n    _;\n  }\n\n  // Define a modifier that checks if an item.state of a upc is Filtered\n  modifier filtered(uint _upc) {\n    require(items[_upc].itemState == State.Filtered);\n\n    _;\n  }\n  \n  // Define a modifier that checks if an item.state of a upc is Bottled\n  modifier bottled(uint _upc) {\n    require(items[_upc].itemState == State.Bottled);\n    _;\n  }\n\n  // Define a modifier that checks if an item.state of a upc is ForSale\n  modifier forSale(uint _upc) {\n    require(items[_upc].itemState == State.ForSale);\n\n    _;\n  }\n\n  // Define a modifier that checks if an item.state of a upc is Sold\n  modifier sold(uint _upc) {\n    require(items[_upc].itemState == State.Sold);\n\n    _;\n  }\n  \n  // Define a modifier that checks if an item.state of a upc is Shipped\n  modifier shipped(uint _upc) {\n    require(items[_upc].itemState == State.Shipped);\n\n    _;\n  }\n\n  // Define a modifier that checks if an item.state of a upc is Received\n  modifier received(uint _upc) {\n    require(items[_upc].itemState == State.Received);\n\n    _;\n  }\n\n  // Define a modifier that checks if an item.state of a upc is Purchased\n  modifier purchased(uint _upc) {\n        require(items[_upc].itemState == State.Purchased);\n\n    _;\n  }\n\n  // In the constructor set 'owner' to the address that instantiated the contract\n  // and set 'sku' to 1\n  // and set 'upc' to 1\n  constructor() public payable {\n    owner = msg.sender;\n    sku = 1;\n    upc = 1;\n  }\n\n  // Define a function 'kill' if required\n  function kill() public {\n    if (msg.sender == owner) {\n      selfdestruct(owner);\n    }\n  }\n\n  // Define a function 'extractWater' that allows a WaterCompany to mark an item 'Extracted'\n  function extractWater(uint _upc, address _originWaterCompanyID, string _originWaterCompanyName, string _originWaterCompanyInformation, string  _originWaterCompanyLatitude, string  _originWaterCompanyLongitude, string  _productNotes) public \n  {\n      \n\n    // Add the new item as part of Extract\n    items[sku].sku = sku ;\n    items[sku].upc= _upc ;\n    items[sku].ownerID= _originWaterCompanyID;\n    items[sku].originWaterCompanyID=  _originWaterCompanyID ;\n    items[sku].originWaterCompanyName = _originWaterCompanyName ;\n    items[sku].originWaterCompanyInformation = _originWaterCompanyInformation;\n    items[sku].originWaterCompanyLatitude= _originWaterCompanyLatitude ;\n    items[sku].originWaterCompanyLongitude =  _originWaterCompanyLongitude;\n    items[sku].productNotes= _productNotes ;\n    items[sku].itemState = State.Extracted;\n\n\n    // Increment sku\n    sku = sku + 1;\n    // Emit the appropriate event\n    emit Extracted(_upc);\n  }\n\n  // Define a function 'filterWater' that allows a WaterCompany to mark an item 'Filtered'\n  function filterWater(uint _upc)   public \n  // Call modifier to check if upc has passed previous supply chain stage\n  extracted(_upc)\n  // Call modifier to verify caller of this function\n  verifyCaller(msg.sender)\n  {\n    // Update the appropriate fields\n        items[sku].itemState = State.Filtered;\n    // Emit the appropriate event\n        emit Filtered(sku);\n\n  }\n\n  // Define a function 'bottlingWater' that allows a WaterCompany to mark an item 'Bottled'\n  function bottlingWater(uint _upc)   public \n  // Call modifier to check if upc has passed previous supply chain stage\n  filtered(sku)\n  // Call modifier to verify caller of this function\n  verifyCaller(msg.sender)\n  {\n    // Update the appropriate fields\n        items[sku].itemState = State.Bottled;\n    // Emit the appropriate event\n        emit Bottled(_upc);\n  }\n\n  // Define a function 'sellItem' that allows a WaterCompany to mark an item 'ForSale'\n  function sellItem(uint _upc, uint _price)    public \n  // Call modifier to check if upc has passed previous supply chain stage\n  bottled(sku)\n  // Call modifier to verify caller of this function\n  verifyCaller(msg.sender)\n  {\n    // Update the appropriate fields   \n      items[sku].productPrice = _price; \n      items[sku].itemState = State.ForSale;    \n    // Emit the appropriate event\n      emit ForSale(_upc);\n\n  }\n\n  // Define a function 'buyItem' that allows the disributor to mark an item 'Sold'\n  // Use the above defined modifiers to check if the item is available for sale, if the buyer has paid enough, \n  // and any excess ether sent is refunded back to the buyer\n  function buyItem(uint _upc)   public payable\n    // Call modifier to check if upc has passed previous supply chain stage\n    forSale(sku)\n    // Call modifer to check if buyer has paid enough\n    paidEnough(items[sku].productPrice)\n    // Call modifer to send any excess ether back to buyer\n    checkValue(sku)  \n    {\n    address distributorID = msg.sender;\n    uint price = items[sku].productPrice;\n\n    // Update the appropriate fields - ownerID, distributorID, itemState\n    items[sku].ownerID = distributorID;\n    items[sku].distributorID =  distributorID ;\n    items[sku].itemState = State.Sold; \n    // Transfer money to WaterCompany\n    items[sku].originWaterCompanyID.transfer(price);\n\n    // emit the appropriate event\n    emit Sold( _upc);\n\n  }\n\n  // Define a function 'shipItem' that allows the distributor to mark an item 'Shipped'\n  // Use the above modifers to check if the item is sold\n  function shipItem(uint _upc)  public  \n    // Call modifier to check if upc has passed previous supply chain stage\n    sold(sku)\n    // Call modifier to verify caller of this function\n      verifyCaller(msg.sender)\n\n    {\n    // Update the appropriate fields\n    items[sku].itemState = State.Shipped;   \n    // Emit the appropriate event\n    emit Shipped( _upc);\n\n  }\n\n  // Define a function 'receiveItem' that allows the retailer to mark an item 'Received'\n  // Use the above modifiers to check if the item is shipped\n  function receiveItem(uint _upc)  public \n    // Call modifier to check if upc has passed previous supply chain stage\n    shipped(sku)\n    // Access Control List enforced by calling Smart Contract / DApp\n    {\n    // Update the appropriate fields - ownerID, retailerID, itemState\n    \n    items[sku].ownerID= msg.sender ;\n    items[sku].retailerID = msg.sender ;\n    items[sku].itemState= State.Received;  \n\n    // Emit the appropriate event\n    emit Received( _upc);\n\n  }\n\n  // Define a function 'purchaseItem' that allows the consumer to mark an item 'Purchased'\n  // Use the above modifiers to check if the item is received\n  function purchaseItem(uint _upc)  public \n    // Call modifier to check if upc has passed previous supply chain stage\n    received(sku)\n    // Access Control List enforced by calling Smart Contract / DApp\n    {\n    // Update the appropriate fields - ownerID, consumerID, itemState\n    items[sku].ownerID= msg.sender ;\n    items[sku].consumerID = msg.sender ;\n    items[sku].itemState = State.Purchased;  \n\n    // Emit the appropriate event\n      emit Purchased( _upc);\n\n  }\n\n  // Define a function 'fetchItemBufferOne' that fetches the data\n  function fetchItemBufferOne(uint _upc) public view returns \n  (\n  uint    itemSKU,\n  uint    itemUPC,\n  address ownerID,\n  address originWaterCompanyID,\n  string  originWaterCompanyName,\n  string  originWaterCompanyInformation,\n  string  originWaterCompanyLatitude,\n  string  originWaterCompanyLongitude\n  ) \n  {\n  // Assign values to the 8 parameters\n    itemSKU = items[_upc].sku ;\n    itemUPC = items[_upc].upc ;\n    ownerID = items[_upc].ownerID ;\n    originWaterCompanyID = items[_upc].originWaterCompanyID ;\n    originWaterCompanyName = items[_upc].originWaterCompanyName ;\n    originWaterCompanyInformation = items[_upc].originWaterCompanyInformation ;\n    originWaterCompanyLatitude = items[_upc].originWaterCompanyLatitude ;\n    originWaterCompanyLongitude = items[_upc].originWaterCompanyLongitude ;\n\n    \n  return \n  (\n  itemSKU,\n  itemUPC,\n  ownerID,\n  originWaterCompanyID,\n  originWaterCompanyName,\n  originWaterCompanyInformation,\n  originWaterCompanyLatitude,\n  originWaterCompanyLongitude\n  );\n  }\n\n  // Define a function 'fetchItemBufferTwo' that fetches the data\n  function fetchItemBufferTwo(uint _upc) public view returns \n  (\n  uint    itemSKU,\n  uint    itemUPC,\n  uint    productID,\n  string  productNotes,\n  uint    productPrice,\n  State    itemState,\n  address distributorID,\n  address retailerID,\n  address consumerID\n  ) \n  {\n    // Assign values to the 9 parameters\nitemSKU = items[_upc].sku ;\nitemUPC = items[_upc].upc ;\nproductID = items[_upc].productID ;\nproductNotes= items[_upc].productNotes ;\nproductPrice = items[_upc].productPrice ;\nitemState = items[_upc].itemState ;\ndistributorID = items[_upc].distributorID ;\nretailerID= items[_upc].retailerID ;\nconsumerID= items[_upc].consumerID ;\n    \n  return \n  (\n  itemSKU,\n  itemUPC,\n  productID,\n  productNotes,\n  productPrice,\n  itemState,\n  distributorID,\n  retailerID,\n  consumerID\n  );\n  }\n}\n",
  "sourcePath": "/Users/fahadalosaimi/Documents/blockChainNanoD/Project-6b/project-6/contracts/waterbase/SupplyChain.sol",
  "compiler": {
    "name": "solc",
    "version": "0.4.25+commit.59dbf8f1.Emscripten.clang"
  },
  "schemaVersion": "2.0.2",
  "updatedAt": "2019-03-10T16:12:35.629Z"
}